:020000040800F2
:10000000002800208D110008311100083711000868
:100010003D110008431100084911000800000000CC
:100020000000000000000000000000004F11000868
:100030005B11000800000000671100087311000840
:10004000D5110008D5110008D5110008D5110008F8
:10005000D5110008D5110008D5110008D5110008E8
:10006000D5110008D5110008D5110008D5110008D8
:10007000D5110008D5110008D5110008D5110008C8
:10008000D5110008D5110008D5110008D5110008B8
:10009000D5110008D5110008D5110008D5110008A8
:1000A000D5110008D5110008D5110008D511000898
:1000B000D5110008D511000800000000D511000876
:1000C000D51100080000000000000000D511000854
:1000D00000000000D5110008D51100080000000044
:1000E000D5110008D5110008D51100080000000046
:1000F0000000000000000000000000000000000000
:0C01000000000000000000005FF808F1A3
:10010C0010B5054C237833B9044B13B10448AFF345
:10011C0000800123237010BD0C00002000000000A3
:10012C00F81F000808B5034B1BB103490348AFF394
:10013C00008008BD0000000010000020F81F00081F
:10014C0080B582B000AF78607B68092B00F2BC816F
:10015C0001A252F823F000BF8D010008E101000854
:10016C003502000889020008DD020008310300088E
:10017C0085030008D90300082D0400088104000839
:10018C0000228021D24801F005FB00224FF480713F
:10019C00CF4801F0FFFA00224FF40071CC4801F077
:1001AC00F9FA00224FF48061C94801F0F3FA0022F9
:1001BC004FF40061C64801F0EDFA00224FF4805173
:1001CC00C34801F0E7FA01224FF40051C04801F096
:1001DC00E1FA79E101228021BD4801F0DBFA00222D
:1001EC004FF48071BA4801F0D5FA00224FF4007137
:1001FC00B74801F0CFFA01224FF48061B44801F006
:10020C00C9FA01224FF40061B14801F0C3FA01228E
:10021C004FF48051AE4801F0BDFA01224FF4005169
:10022C00AB4801F0B7FA4FE100228021A84801F059
:10023C00B1FA00224FF48071A54801F0ABFA01220B
:10024C004FF40071A24801F0A5FA00224FF480612E
:10025C009F4801F09FFA00224FF400619C4801F086
:10026C0099FA01224FF48051994801F093FA002237
:10027C004FF40051964801F08DFA25E100228021BF
:10028C00934801F087FA00224FF48071904801F0F6
:10029C0081FA00224FF400718D4801F07BFA0022A4
:1002AC004FF480618A4801F075FA01224FF4006125
:1002BC00874801F06FFA01224FF48051844801F015
:1002CC0069FA00224FF40051814801F063FAFBE017
:1002DC00012280217E4801F05DFA00224FF48071EA
:1002EC007B4801F057FA00224FF40071784801F076
:1002FC0051FA01224FF48061754801F04BFA01224A
:10030C004FF40061724801F045FA00224FF480511D
:10031C006F4801F03FFA00224FF400516C4801F095
:10032C0039FAD1E000228021694801F033FA012228
:10033C004FF48071664801F02DFA00224FF40071E1
:10034C00634801F027FA00224FF48061604801F005
:10035C0021FA01224FF400615D4801F01BFA0022E2
:10036C004FF480515A4801F015FA00224FF4005115
:10037C00574801F00FFAA7E000228021544801F001
:10038C0009FA01224FF48071514801F003FA00225E
:10039C004FF400714E4801F0FDF900224FF48061DA
:1003AC004B4801F0F7F900224FF40061484801F086
:1003BC00F1F900224FF48051454801F0EBF900228D
:1003CC004FF40051424801F0E5F97DE00022802114
:1003DC003F4801F0DFF900224FF480713C4801F0F6
:1003EC00D9F900224FF40071394801F0D3F90122F8
:1003FC004FF48061364801F0CDF901224FF40061D1
:10040C00334801F0C7F901224FF48051304801F014
:10041C00C1F901224FF400512D4801F0BBF953E012
:10042C00002280212A4801F0B5F900224FF4807196
:10043C00274801F0AFF900224FF40071244801F075
:10044C00A9F900224FF48061214801F0A3F90022A0
:10045C004FF400611E4801F09DF900224FF48051C9
:10046C001B4801F097F900224FF40051184801F095
:10047C0091F929E000228021154801F08BF9002226
:10048C004FF48071124801F085F900224FF400718D
:10049C000F4801F07FF900224FF480610C4801F005
:1004AC0079F901224FF40061094801F073F9002237
:1004BC004FF48051064801F06DF900224FF40051C1
:1004CC00034801F067F900BF00BF0837BD4680BD87
:1004DC00000C014080B582B000AF78607B68092BBE
:1004EC0000F2808101A252F823F000BF2105000820
:1004FC0069050008B1050008F90500084106000867
:10050C0089060008D10600081907000861070008D1
:10051C00A907000800220121B44801F03BF9002290
:10052C000221B24801F036F900220421AF4801F053
:10053C0031F900220821AD4801F02CF900221021DC
:10054C00AA4801F027F900222021A84801F022F93D
:10055C0001224021A54801F01DF943E101220121AE
:10056C00A24801F017F900220221A04801F012F96B
:10057C00002204219D4801F00DF9012208219B481D
:10058C0001F008F901221021984801F003F9012229
:10059C002021964801F0FEF801224021934801F0F9
:1005AC00F9F81FE100220121904801F0F3F8002234
:1005BC0002218E4801F0EEF8012204218B4801F053
:1005CC00E9F800220821894801F0E4F80022102102
:1005DC00864801F0DFF801222021844801F0DAF886
:1005EC0000224021814801F0D5F8FBE000220121D6
:1005FC007E4801F0CFF8002202217C4801F0CAF8B5
:10060C0000220421794801F0C5F80022082177481E
:10061C0001F0C0F801221021744801F0BBF801224E
:10062C002021724801F0B6F8002240216F4801F0F9
:10063C00B1F8D7E0012201216C4801F0ABF800229F
:10064C0002216A4801F0A6F800220421674801F053
:10065C00A1F801220821654801F09CF80122102123
:10066C00624801F097F800222021604801F092F8CE
:10067C00002240215D4801F08DF8B3E000220121F9
:10068C005A4801F087F801220221584801F082F8FB
:10069C0000220421554801F07DF80022082153481E
:1006AC0001F078F801221021504801F073F8002273
:1006BC0020214E4801F06EF8002240214B4801F0F9
:1006CC0069F88FE000220121484801F063F801220B
:1006DC000221464801F05EF800220421434801F053
:1006EC0059F800220821414801F054F80022102149
:1006FC003E4801F04FF8002220213C4801F04AF816
:10070C0000224021394801F045F86BE0002201211C
:10071C00364801F03FF800220221344801F03AF843
:10072C0000220421314801F035F8012208212F481C
:10073C0001F030F8012210212C4801F02BF8012295
:10074C0020212A4801F026F801224021274801F0F7
:10075C0021F847E000220121244801F01BF8002277
:10076C000221224801F016F8002204211F4801F052
:10077C0011F8002208211D4801F00CF8002210216C
:10078C001A4801F007F800222021184801F002F85D
:10079C0000224021154800F0FDFF23E0002201213A
:1007AC00124800F0F7FF00220221104800F0F2FF7F
:1007BC00002204210D4800F0EDFF002208210B4817
:1007CC0000F0E8FF01221021084800F0E3FF0022AE
:1007DC002021064800F0DEFF00224021034800F0F3
:1007EC00D9FF00BF00BF0837BD4680BD000C0140DB
:1007FC0080B588B000AF00F0E9FC00F0CBF900F058
:10080C0005FA0523FB600223BB6003237B600023F6
:10081C00FB610023BB6100237B6100233B61BB694F
:10082C00002B68D100220221924800F0B3FF012274
:10083C001021904800F0AEFF002280218D4800F07E
:10084C00A9FF01224FF480618A4800F0A3FF012226
:10085C000421884800F09EFF01222021854800F0E9
:10086C0099FF01224FF48071824800F093FF01221E
:10087C004FF400617F4800F08DFF012208217D4874
:10088C0000F088FF002240217A4800F083FF01220B
:10089C004FF40071774800F07DFF00224FF4805137
:1008AC00744800F077FFFA68BB68D31AFA699A4269
:1008BC0006DD0123BB610023FB6100233B611AE0D1
:1008CC00FB690133FB610023BB61FA687B69D31AB6
:1008DC001846FFF7FFFD7A683B69D31A1846FFF7F5
:1008EC002FFC7B6901337B613B6901333B614FF426
:1008FC00FA7000F0CDFCBB69012B6AD100220221F9
:10090C005C4800F047FF012210215A4800F042FFDA
:10091C0000228021574800F03DFF01224FF48061F6
:10092C00544800F037FF01220421524800F032FFF6
:10093C00002220214F4800F02DFF01224FF480713E
:10094C004C4800F027FF00224FF40061494800F0AA
:10095C0021FF01220821474800F01CFF0122402101
:10096C00444800F017FF01224FF40071414800F099
:10097C0011FF01224FF480513E4800F00BFFFA6842
:10098C007B68D31AFA699A4208DD0223BB61002303
:10099C00FB6100237B6100233B611AE0FB6901339F
:1009AC00FB610123BB61FA687B69D31A1846FFF718
:1009BC0091FDBA683B69D31A1846FFF7C1FB7B69F6
:1009CC0001337B613B6901333B614FF4FA7000F0FA
:1009DC005FFCBB69022B6AD101220221254800F081
:1009EC00D9FE00221021234800F0D4FE01228021E0
:1009FC00204800F0CFFE00224FF480611D4800F02B
:100A0C00C9FE012204211B4800F0C4FE0122202152
:100A1C00184800F0BFFE01224FF48071154800F019
:100A2C00B9FE01224FF40061124800F0B3FE00221F
:100A3C000821104800F0AEFE012240210D4800F0C4
:100A4C00A9FE00224FF400710A4800F0A3FE012217
:100A5C004FF48051074800F09DFEFA68BB68D31A2A
:100A6C00FA699A4208DD0323BB610023FB61002372
:100A7C007B611CE000080140FB690133FB617A6873
:100A8C007B69D31A1846FFF725FDFA683B69D31A20
:100A9C001846FFF755FB7B6901337B613B690133DA
:100AAC003B610223BB614FF4FA7000F0F1FBBB69B0
:100ABC00032B7FF4B4AE01220221354800F06AFE0C
:100ACC0000221021324800F065FE012280213048BE
:100ADC0000F060FE00224FF480612D4800F05AFEB9
:100AEC00002204212A4800F055FE0122202128482A
:100AFC0000F050FE00224FF48071254800F04AFEB1
:100B0C0001224FF40061224800F044FE012208212A
:100B1C001F4800F03FFE012240211D4800F03AFE24
:100B2C0001224FF400711A4800F034FE01224FF4F8
:100B3C008051174800F02EFEFA687B68D31AFA69C8
:100B4C009A4208DD0023BB610023FB6100237B611B
:100B5C0000233B6163E6FB690133FB610323BB614B
:100B6C00BA687B69D31A1846FFF7B4FCFA683B697C
:100B7C00D31A1846FFF7E4FA7B6901337B613B69B2
:100B8C0001333B614FF4FA7000F082FB47E600BF83
:100B9C000008014080B590B000AF07F1180328227F
:100BAC000021184601F01AFA3B1D00221A605A6007
:100BBC009A60DA601A610223BB610123BB621023C5
:100BCC00FB6200237B6307F11803184600F0FAFD63
:100BDC000346002B01D000F087F80F237B60002325
:100BEC00BB600023FB6000233B6100237B613B1D4A
:100BFC000021184601F066F80346002B01D000F0E6
:100C0C0073F800BF4037BD4680BD000080B586B08C
:100C1C0000AF07F1080300221A605A609A60DA608C
:100C2C002E4B9B692D4A43F0040393612B4B9B691C
:100C3C0003F004037B607B68284B9B69274A43F0D5
:100C4C0008039361254B9B6903F008033B603B68E9
:100C5C00002240F6FE71224800F09CFD002243F673
:100C6C00DF71204800F096FD40F6FE73BB60012357
:100C7C00FB6000233B6102237B6107F108031946EB
:100C8C00174800F00DFC43F6DF73BB600123FB60DB
:100C9C0000233B6102237B6107F1080319461148CD
:100CAC0000F0FEFB4FF48053BB600323FB6007F1A5
:100CBC00080319460A4800F0F3FB2023BB6000230D
:100CCC00FB6000233B6107F108031946054800F05F
:100CDC00E7FB00BF1837BD4680BD00BF00100240C7
:100CEC0000080140000C014080B588B000AF72B61E
:100CFC0000BF0523FB600223BB6003237B60002342
:100D0C00FB610023BB6100237B6100233B61BB695A
:100D1C00002B6CD100220221974800F03BFD0122F0
:100D2C001021954800F036FD00228021924800F0F9
:100D3C0031FD01224FF480618F4800F02BFD012220
:100D4C0004218D4800F026FD012220218A4800F064
:100D5C0021FD01224FF48071874800F01BFD012218
:100D6C004FF40061844800F015FD012208218248EF
:100D7C0000F010FD002240217F4800F00BFD012205
:100D8C004FF400717C4800F005FD00224FF48051B7
:100D9C00794800F0FFFCFA68BB68D31AFA699A42EA
:100DAC0004DD0123BB610023FB6120E0FB690133FF
:100DBC00FB610023BB61FA687B69D31A1846FFF705
:100DCC0089FB7B6901337B617A683B69D31A1846CE
:100DDC00FFF7B6F93B6901333B617A683B699A428C
:100DEC0001D100233B614FF4FA7000F051FABB695A
:100DFC00012B72D1002202215F4800F0CBFC0122B2
:100E0C0010215D4800F0C6FC002280215A4800F0F9
:100E1C00C1FC01224FF48061574800F0BBFC012259
:100E2C000421554800F0B6FC00222021524800F065
:100E3C00B1FC01224FF480714F4800F0ABFC002252
:100E4C004FF400614C4800F0A5FC012208214A48EF
:100E5C0000F0A0FC01224021474800F09BFC01223D
:100E6C004FF40071444800F095FC01224FF480517E
:100E7C00414800F08FFCFA687B68D31AFA699A42F1
:100E8C0004DD0223BB610023FB6126E0FB69013317
:100E9C00FB610123BB61FA687B69D31A1846FFF723
:100EAC0019FB7B6901337B61FA687B699A4201D13A
:100EBC0000237B61BA683B69D31A1846FFF740F9E7
:100ECC003B6901333B61BA683B699A4201D100230B
:100EDC003B614FF4FA7000F0DBF9BB69022B74D163
:100EEC0001220221244800F055FC00221021224846
:100EFC0000F050FC012280211F4800F04BFC002226
:100F0C004FF480611C4800F045FC012204211A4872
:100F1C0000F040FC01222021174800F03BFC01228C
:100F2C004FF48071144800F035FC01224FF400613D
:100F3C00114800F02FFC002208210F4800F02AFC79
:100F4C00012240210C4800F025FC00224FF40071D6
:100F5C00094800F01FFC01224FF48051064800F0B4
:100F6C0019FCFA68BB68D31AFA699A4206DD0323A6
:100F7C00BB610023FB6128E000080140FB690133E1
:100F8C00FB610223BB617A687B69D31A1846FFF7B1
:100F9C00A1FA7B6901337B617A687B699A4201D142
:100FAC0000237B61FA683B69D31A1846FFF7C8F82F
:100FBC003B6901333B61FA683B699A4201D10023DA
:100FCC003B614FF4FA7000F063F9BB69032B7FF4BB
:100FDC009EAE01220221394800F0DCFB00221021D8
:100FEC00364800F0D7FB01228021344800F0D2FBB8
:100FFC0000224FF48061314800F0CCFB0022042128
:10100C002E4800F0C7FB012220212C4800F0C2FB27
:10101C0000224FF48071294800F0BCFB01224FF4F0
:10102C000061264800F0B6FB01220821234800F09D
:10103C00B1FB01224021214800F0ACFB01224FF40E
:10104C0000711E4800F0A6FB01224FF480511B4892
:10105C0000F0A0FBFA687B68D31AFA699A4204DDA7
:10106C000023BB610023FB6151E6FB690133FB618B
:10107C000323BB61BA687B69D31A1846FFF72AFAB7
:10108C007B6901337B61BA687B699A4201D1002389
:10109C007B61FA683B69D31A1846FFF751F83B6934
:1010AC0001333B61FA683B699A4201D100233B61F1
:1010BC004FF4FA7000F0ECF829E600BF000801408C
:1010CC0080B485B000AF154B9B69144A43F0010303
:1010DC009361124B9B6903F00103BB60BB680F4B20
:1010EC00DB690E4A43F08053D3610C4BDB6903F090
:1010FC0080537B607B680A4B5B68FB60FB6823F06A
:10110C00E063FB60FB6843F08063FB60044AFB68B0
:10111C00536000BF1437BD4680BC704700100240BE
:10112C000000014080B400AFFEE780B400AFFEE7E2
:10113C0080B400AFFEE780B400AFFEE780B400AF30
:10114C00FEE780B400AF00BFBD4680BC704780B4E2
:10115C0000AF00BFBD4680BC704780B400AF00BF7D
:10116C00BD4680BC704780B500AF00F075F800BF7D
:10117C0080BD80B400AF00BFBD4680BC704700008E
:10118C000C480D490D4A002302E0D458C4500433D6
:10119C00C4188C42F9D30A4A0A4C002301E01360AC
:1011AC000432A242FBD3FFF7E4FF00F0F3FEFFF79B
:1011BC001FFB7047000000200C00002038200008A6
:1011CC000C0000202C000020FEE7000080B500AFD2
:1011DC00084B1B68074A43F010031360032000F010
:1011EC002BF90F2000F008F8FFF76AFF00231846D0
:1011FC0080BD00BF0020024080B582B000AF786097
:10120C00124B1A68124B1B7819464FF47A73B3FBC6
:10121C00F1F3B2FBF3F3184600F035F90346002B5B
:10122C0001D001230EE07B680F2B0AD800227968CD
:10123C004FF0FF3000F00BF9064A7B681360002377
:10124C0000E0012318460837BD4680BD0000002091
:10125C00080000200400002080B400AF054B1B7870
:10126C001A46054B1B681344034A136000BFBD4666
:10127C0080BC7047080000202800002080B400AF1C
:10128C00024B1B681846BD4680BC704728000020E6
:10129C0080B584B000AF7860FFF7F0FFB8607B6872
:1012AC00FB60FB68B3F1FF3F05D00A4B1B781A4675
:1012BC00FB681344FB6000BFFFF7E0FF0246BB680E
:1012CC00D31AFA689A42F7D800BF00BF1037BD4650
:1012DC0080BD00BF0800002080B485B000AF7860EE
:1012EC007B6803F00703FB600C4BDB68BB60BA68E0
:1012FC004FF6FF031340BB60FB681A02BB68134335
:10130C0043F0BF6343F40033BB60044ABB68D36053
:10131C0000BF1437BD4680BC704700BF00ED00E035
:10132C0080B400AF044BDB681B0A03F007031846BC
:10133C00BD4680BC704700BF00ED00E080B483B0B8
:10134C0000AF03463960FB7197F90730002B0ADBBD
:10135C003B68DAB20C4997F907301201D2B20B4450
:10136C0083F800230AE03B68DAB20849FB7903F002
:10137C000F03043B1201D2B20B441A7600BF0C3798
:10138C00BD4680BC704700BF00E100E000ED00E00E
:10139C0080B489B000AFF860B9607A60FB6803F084
:1013AC000703FB61FB69C3F10703042B28BF04236C
:1013BC00BB61FB690433062B02D9FB69033B00E0DC
:1013CC0000237B614FF0FF32BB6902FA03F3DA436F
:1013DC00BB681A407B699A404FF0FF317B6901FA78
:1013EC0003F3D9437B680B40134318462437BD469F
:1013FC0080BC704780B582B000AF78607B68013BE1
:10140C00B3F1807F01D301230FE00A4A7B68013BD3
:10141C0053600F214FF0FF30FFF790FF054B002278
:10142C009A60044B07221A60002318460837BD4601
:10143C0080BD00BF10E000E080B582B000AF7860E6
:10144C007868FFF749FF00BF0837BD4680BD80B5FF
:10145C0086B000AF0346B9607A60FB7300237B61F2
:10146C00FFF75EFF78617A68B9687869FFF790FFDB
:10147C00024697F90F3011461846FFF75FFF00BF81
:10148C001837BD4680BD80B582B000AF78607868F3
:10149C00FFF7B0FF034618460837BD4680BD000075
:1014AC0080B48BB000AF7860396000237B6200237E
:1014BC003B6248E101227B6A02FA03F3FB613B6861
:1014CC001B68FA691340BB61BA69FB699A4240F028
:1014DC0037813B685B68A34A93425ED0A14A934232
:1014EC0075D8A14A934258D09F4A93426FD89F4ACD
:1014FC00934252D09D4A934269D89D4A93424CD014
:10150C009B4A934263D89B4A934246D0994A934252
:10151C005DD8122B2AD8122B59D801A252F823F0DD
:10152C00A71500088115000893150008D5150008AB
:10153C00DB150008DB150008DB150008DB150008BF
:10154C00DB150008DB150008DB150008DB150008AF
:10155C00DB150008DB150008DB150008DB1500089F
:10156C00DB150008891500089D150008824A934276
:10157C0013D02CE03B68DB683B6229E03B68DB68FE
:10158C0004333B6224E03B68DB6808333B621FE0BA
:10159C003B68DB680C333B621AE03B689B68002BB2
:1015AC0002D104233B6213E03B689B68012B05D1FD
:1015BC0008233B627B68FA691A6109E008233B62E5
:1015CC007B68FA695A6103E000233B6200E000BFCC
:1015DC00BB69FF2B01D87B6801E07B6804337B611E
:1015EC00BB69FF2B02D87B6A9B0002E07B6A083B3D
:1015FC009B003B617B691A680F213B6901FA03F37D
:10160C00DB431A40396A3B6901FA03F31A437B69DD
:10161C001A603B685B6803F08053002B00F09080ED
:10162C00564B9B69554A43F001039361534B9B699D
:10163C0003F00103BB60BB68514A7B6A9B08023311
:10164C0052F82330FB607B6A03F003039B000F22EC
:10165C0002FA03F3DB43FA681340FB607B68494AE8
:10166C0093420DD07B68484A934207D07B68474A27
:10167C00934201D1022304E0032302E0012300E0A2
:10168C0000237A6A02F0030292009340FA68134333
:10169C00FB603B497B6A9B080233FA6841F82320C4
:1016AC003B685B6803F48033002B06D0384B1A6818
:1016BC003749BB6913430B6006E0354B1A68BB69AD
:1016CC00DB43334913400B603B685B6803F4003326
:1016DC00002B06D02E4B5A682D49BB6913434B6027
:1016EC0006E02B4B5A68BB69DB43294913404B601E
:1016FC003B685B6803F48013002B06D0244B9A687C
:10170C002349BB6913438B6006E0214B9A68BB6984
:10171C00DB431F4913408B603B685B6803F4001389
:10172C00002B06D01A4BDA681949BB691343CB60FE
:10173C0006E0174BDA68BB69DB4315491340CB60F5
:10174C007B6A01337B623B681A687B6A22FA03F37B
:10175C00002B7FF4AFAE00BF00BF2C37BD4680BC62
:10176C00704700BF00003210000031100000221042
:10177C000000211000001210000011100010024097
:10178C000000014000080140000C01400010014025
:10179C000004014080B483B000AF78600B467B80BE
:1017AC0013467B707B78002B03D07A887B681A6198
:1017BC0003E07B881A047B681A6100BF0C37BD46B6
:1017CC0080BC704780B586B000AF78607B68002B1A
:1017DC0001D101236CE27B681B6803F00103002B31
:1017EC0000F08780924B5B6803F00C03042B0CD049
:1017FC008F4B5B6803F00C03082B12D18C4B5B688E
:10180C0003F48033B3F5803F0BD1894B1B6803F491
:10181C000033002B6CD07B685B68002B68D10123F4
:10182C0046E27B685B68B3F5803F06D1804B1B6852
:10183C007F4A43F4803313602EE07B685B68002B97
:10184C000CD17B4B1B687A4A23F480331360784BA2
:10185C001B68774A23F4802313601DE07B685B6868
:10186C00B3F5A02F0CD1724B1B68714A43F4802343
:10187C0013606F4B1B686E4A43F4803313600BE0AC
:10188C006B4B1B686A4A23F480331360684B1B68EC
:10189C00674A23F4802313607B685B68002B13D0AA
:1018AC00FFF7ECFC386108E0FFF7E8FC02463B6907
:1018BC00D31A642B01D90323FAE15D4B1B6803F4A3
:1018CC000033002BF0D014E0FFF7D8FC386108E0AF
:1018DC00FFF7D4FC02463B69D31A642B01D90323CE
:1018EC00E6E1534B1B6803F40033002BF0D100E00E
:1018FC0000BF7B681B6803F00203002B63D04C4BCA
:10190C005B6803F00C03002B0BD0494B5B6803F0B6
:10191C000C03082B1CD1464B5B6803F48033002B63
:10192C0016D1434B1B6803F00203002B05D07B68D8
:10193C001B69012B01D00123BAE13D4B1B6823F03D
:10194C00F8027B685B69DB00394913430B603AE0B2
:10195C007B681B69002B20D0364B01221A60FFF7E5
:10196C008DFC386108E0FFF789FC02463B69D31A0D
:10197C00022B01D903239BE12D4B1B6803F00203BF
:10198C00002BF0D02A4B1B6823F0F8027B685B69B4
:10199C00DB00274913430B6015E0264B00221A602D
:1019AC00FFF76CFC386108E0FFF768FC02463B6906
:1019BC00D31A022B01D903237AE11D4B1B6803F0C8
:1019CC000203002BF0D17B681B6803F00803002B8B
:1019DC003AD07B689B69002B19D0174B01221A60F7
:1019EC00FFF74CFC386108E0FFF748FC02463B6906
:1019FC00D31A022B01D903235AE10D4B5B6A03F076
:101A0C000203002BF0D0012000F0A6FA1CE00A4BD8
:101A1C0000221A60FFF732FC38610FE0FFF72EFC52
:101A2C0002463B69D31A022B08D9032340E100BFBD
:101A3C000010024000004242800442429E4B5B6A0E
:101A4C0003F00203002BE9D17B681B6803F004034D
:101A5C00002B00F0A6800023FB75974BDB6903F08D
:101A6C008053002B0DD1944BDB69934A43F0805388
:101A7C00D361914BDB6903F08053BB60BB680123DE
:101A8C00FB758E4B1B6803F48073002B18D18B4BAA
:101A9C001B688A4A43F480731360FFF7EFFB3861CD
:101AAC0008E0FFF7EBFB02463B69D31A642B01D924
:101ABC000323FDE0814B1B6803F48073002BF0D0F3
:101ACC007B68DB68012B06D17B4B1B6A7A4A43F09F
:101ADC00010313622DE07B68DB68002B0CD1764B85
:101AEC001B6A754A23F001031362734B1B6A724A1B
:101AFC0023F0040313621CE07B68DB68052B0CD11C
:101B0C006D4B1B6A6C4A43F0040313626A4B1B6AED
:101B1C00694A43F0010313620BE0674B1B6A664A88
:101B2C0023F001031362644B1B6A634A23F0040322
:101B3C0013627B68DB68002B15D0FFF79FFB3861C5
:101B4C000AE0FFF79BFB02463B69D31A41F288324D
:101B5C00934201D90323ABE0574B1B6A03F00203FA
:101B6C00002BEED014E0FFF789FB38610AE0FFF799
:101B7C0085FB02463B69D31A41F28832934201D964
:101B8C00032395E04C4B1B6A03F00203002BEED1B0
:101B9C00FB7D012B05D1484BDB69474A23F0805371
:101BAC00D3617B68DB69002B00F08180424B5B6862
:101BBC0003F00C03082B61D07B68DB69022B46D148
:101BCC003F4B00221A60FFF759FB386108E0FFF722
:101BDC0055FB02463B69D31A022B01D9032367E05C
:101BEC00354B1B6803F00073002BF0D17B681B6A2C
:101BFC00B3F5803F08D1304B5B6823F400327B682F
:101C0C009B682D4913434B602B4B5B6823F4741278
:101C1C007B68196A7B685B6A0B43274913434B60EB
:101C2C00274B01221A60FFF729FB386108E0FFF708
:101C3C0025FB02463B69D31A022B01D9032337E05B
:101C4C001D4B1B6803F00073002BF0D02FE01C4BD6
:101C5C0000221A60FFF712FB386108E0FFF70EFB59
:101C6C0002463B69D31A022B01D9032320E0124B05
:101C7C001B6803F00073002BF0D118E07B68DB6964
:101C8C00012B01D1012313E00B4B5B68FB60FB685C
:101C9C0003F480327B681B6A9A4206D1FB6803F41A
:101CAC0070127B685B6A9A4201D0012300E000232A
:101CBC0018461837BD4680BD001002400070004029
:101CCC006000424280B584B000AF786039607B68B8
:101CDC00002B01D10123D0E06A4B1B6803F00703F2
:101CEC003A689A4210D9674B1B6823F00702654982
:101CFC003B6813430B60634B1B6803F007033A68A4
:101D0C009A4201D00123B8E07B681B6803F0020300
:101D1C00002B20D07B681B6803F00403002B05D03C
:101D2C00594B5B68584A43F4E06353607B681B680B
:101D3C0003F00803002B05D0534B5B68524A43F465
:101D4C0060535360504B5B6823F0F0027B689B68D8
:101D5C004D4913434B607B681B6803F00103002B58
:101D6C0040D07B685B68012B07D1474B1B6803F4A1
:101D7C000033002B15D101237FE07B685B68022BBD
:101D8C0007D1414B1B6803F00073002B09D10123D1
:101D9C0073E03D4B1B6803F00203002B01D10123C0
:101DAC006BE0394B5B6823F003027B685B68364958
:101DBC0013434B60FFF762FAF8600AE0FFF75EFA34
:101DCC000246FB68D31A41F28832934201D90323AD
:101DDC0053E02D4B5B6803F00C027B685B689B0047
:101DEC009A42EBD1274B1B6803F007033A689A42DF
:101DFC0010D2244B1B6823F0070222493B68134383
:101E0C000B60204B1B6803F007033A689A4201D021
:101E1C00012332E07B681B6803F00403002B08D01D
:101E2C00194B5B6823F4E0627B68DB68164913434B
:101E3C004B607B681B6803F00803002B09D0124B26
:101E4C005B6823F460527B681B69DB000E4913430B
:101E5C004B6000F021F802460B4B5B681B0903F04A
:101E6C000F030A49CB5C22FA03F3094A1360094BAE
:101E7C001B681846FFF7C0F9002318461037BD46FB
:101E8C0080BD00BF0020024000100240202000084E
:101E9C00000000200400002090B48AB000AF2A4B50
:101EAC003C1D0FCB84E80F0040F201233B80002344
:101EBC00FB610023BB6100237B6200237B61002359
:101ECC003B62224B5B68FB61FB6903F00C03042B48
:101EDC0002D0082B03D02DE01D4B3B622DE0FB699B
:101EEC009B0C03F00F0307F12802134413F8243C56
:101EFC007B61FB6903F48033002B13D0134B5B68BD
:101F0C005B0C03F0010307F12802134413F8283C7F
:101F1C00BB617B690E4A02FB03F2BB69B2FBF3F3B4
:101F2C007B6204E07B690B4A02FB03F37B627B6AF6
:101F3C003B6202E0064B3B6200BF3B6A1846283707
:101F4C00BD4690BC704700BF102000080010024036
:101F5C0000127A0000093D0080B485B000AF7860B3
:101F6C000A4B1B680A4AA2FB03235B0A7A6802FB32
:101F7C0003F3FB6000BFFB685A1EFA60002BF9D11B
:101F8C0000BF00BF1437BD4680BC70470000002066
:101F9C00D34D621070B500260C4D0D4C641BA41073
:101FAC00A64209D100F022F800260A4D0A4C641B07
:101FBC00A410A64205D170BD55F8043B98470136D4
:101FCC00EEE755F8043B98470136F2E7302000085D
:101FDC00302000083020000834200008034602445A
:101FEC00934200D1704703F8011BF9E7F8B500BF25
:101FFC00F8BC08BC9E467047F8B500BFF8BC08BCDE
:04200C009E46704735
:1020100002030405060708090A0B0C0D0E0F101029
:102020000000000000000000010203040607080988
:042030003101000872
:042034000D01000892
:0C2038000024F400100000000100000073
:040000050800118D51
:00000001FF
